:020000040800F2
:1000000030040020450100083D220008412200087C
:1000100045220008492200084D2200080000000087
:100020000000000000000000000000005122000855
:100030005522000800000000592200085D22000837
:100040005F0100085F0100085F0100085F01000810
:100050005F0100085F0100085F0100085F01000800
:100060005F0100085F0100085F0100085F010008F0
:100070005F0100085F0100085F0100085F010008E0
:100080005F0100085F0100085F0100085F010008D0
:100090005F0100085F0100085F0100085F010008C0
:1000A0005F0100085F0100085F0100085F010008B0
:1000B0005F0100085F0100085F0100085F010008A0
:1000C0005F0100085F0100085F0100085F01000890
:1000D0005F010008612200085F0100085F0100085D
:1000E0005F0100085F0100085F0100085F01000870
:1000F0005F0100085F0100085F0100085F01000860
:100100005F0100085F0100085F0100085F0100084F
:100110005F0100085F010008992200085F010008E4
:100120005F0100085F0100085F0100085F0100082F
:10013000DFF80CD004F020F800480047092100083F
:10014000300400200648804706480047FEE7FEE7E7
:10015000FEE7FEE7FEE7FEE7FEE7FEE7FEE7FEE777
:10016000690100083101000882B041F20400C4F2C4
:10017000020050F8041C002241F0010140F8041C68
:100180000168CFF6FF021140016050F8041C4FF6E1
:10019000FF72CFF6F662114040F8041C50F8041CC0
:1001A00021F4802140F8041C016821F4FE01016063
:1001B0004FF41F01416000210191009150F8041C8F
:1001C00041F4803140F8041C50F8041C01F4003163
:1001D0000091019901310191009919B90199B1F585
:1001E000A06FF1D150F8041C890354BF00210121F4
:1001F00000910099012936D142F20001C4F20201B6
:100200000A6842F010020A600A6822F003020A60DB
:100210000A6842F002020A60016801600168016038
:10022000016841F480610160016821F47C11016082
:10023000016841F4E811016050F8041C41F080713C
:1002400040F8041C50F8041C8901FBD5016821F01A
:1002500003010160016841F002010160016801F0E1
:100260000C010829FAD14EF60850CEF200004FF0EA
:100270000061016002B0704741F20400C4F2020064
:10028000016801F00C01082941F20021C0F27A0155
:1002900017D102680368C2F38342DB0302F1020252
:1002A00005D440F60011C0F23D01514309E0036856
:1002B0009B0301D4514304E040F60011C0F23D011C
:1002C000514340F22002C2F200021160006844F281
:1002D000DC11C0F30310C0F60001085C116821FABC
:1002E00000F010607047000040F080604EF60C5146
:1002F00040F0FD70CEF200010860704710B5C17883
:1003000000294EF20011CEF200011AD04EF60C5226
:10031000CEF200021268072323EA12220F23C2F151
:10032000040C23FA02F24378847890F800E003FA90
:100330000CF322401A43120101EB0E0383F8002351
:1003400000E080310078012300F01F0203FA02F27E
:10035000C0F3421041F8202010BD00BF4FF680725C
:10036000C1F6FF72114008434EF60851CEF200016B
:100370000860704700294EF61051CEF200010A685D
:100380000CBF22EA00001043086070474EF21001D3
:10039000CEF200010A68042822F0040208BF0432E9
:1003A0000A6070474FF02041002819BF43F2D20283
:1003B00041F8202043F2DB020A600421CAF2000166
:1003C0006FF0704241F8202040F20411CAF200019F
:1003D00041F82020704700BF60231028CAF20003B4
:1003E00007D11821184640F80C1B191D03F108020B
:1003F00007E01820186203F1240103F1280203F139
:100400002C0040230B604FF0FC31116001607047FD
:10041000A020CAF2000018210160002141604FF0C5
:10042000FC318160C1600161704700BF70B5D0E9E7
:1004300000CED0E9023200F1100672CE43EA0E037C
:100440001A43114321432943314300F120064CCE86
:10045000D0E90B54114319433143294341EA0402C3
:100460004FF0204141F82C208268082A06D102680A
:1004700051F8223043F0400341F82230416BD0F86C
:1004800000C0D1E900E6D1E902544EEA0616D1E9EE
:10049000042346EA052646EA0446896946EA0252EA
:1004A00042EA036211430422CAF2000242F82C100D
:1004B000C16AB1F5804F0FD1816B91E84C00D1E951
:1004C000045442EA031242EA0622896942EA0552CA
:1004D00042EA0462114301E06FF07041006840F2AB
:1004E0000412CAF2000242F8201070BD2DE9F04358
:1004F000D0E90092D0E90237D0E904651A433A43C3
:10050000D0E906413243066A42EA452240F2600CD5
:1005100042EA4437D1E900E3D1F80880C86874CED4
:10052000CAF2000CB9F1100F47F0080105D1674677
:1005300047F80C1B0CF1080105E0CCF820100CF179
:1005400028010CF12C0742EA04224EEA032342EA76
:10055000054243EA084342EA066243EA0060086053
:100560003A60BDE8F08300BF80B5D0E900C2D0E9B1
:1005700002314CEA422242EA433240F2A00C42F0FD
:100580001002CAF2000CCCF80020D1E900E3D1E956
:1005900002214EEA032343EA024242EA0161CCF817
:1005A00008100169D1E900E3D1E902214EEA0323F1
:1005B00043EA024242EA0161CCF80C10406990E83B
:1005C0000E00C06841EA022141EA034141EA0060AD
:1005D000CCF8100080BD00BF00210222C0E900124B
:1005E0004FF4805200F1200CC0E90211C0E904115F
:1005F000C0E906114FF400538CE80E00C0E90B115E
:10060000426B806B0F234FF0FF0CC2E90033C2E94D
:1006100002C3C2E904339161C0E90033C0E902C3F7
:10062000C0E904338161704710210022C0E9001243
:10063000C0E90222C0E904228261D0E90710FC224D
:10064000C1E90022C1E90222C0E90022C0E9022278
:10065000704700BF0021C0E900118160D0E903129A
:100660004069FC23C1E90033C1E90233C2E9003328
:10067000C2E90233C0E90033C0E90233704700BF6A
:1006800080B54FF0204E5EF820304FF6FE7C43F0F0
:100690000102C0F20F0C002908BF03EA0C024EF859
:1006A000202080BD51B1102840F26000CAF2000045
:1006B00011D1016841F004010160704760211028E8
:1006C0004FF6FB70CAF20001C0F20F0008D10A68B1
:1006D000104008607047016A41F0040101627047F0
:1006E0000A6A104008627047A021CAF200010A6835
:1006F0004FF6FB7C42F00403C0F20F0C002808BF49
:1007000002EA0C030B60704751B1102840F2600000
:10071000CAF2000011D1016841F040010160704748
:10072000602110284FF6BF70CAF20001C0F20F001E
:1007300008D10A68104008607047016A41F0400122
:10074000016270470A6A1040086270477421CAF259
:1007500000012031102804BF7421CAF2000108688A
:10076000704700BF5AB1B0F5807F15D010281AD15C
:100770006420CAF200000268114301607047B0F5BE
:10078000807F17D010281DD16420CAF200000268B3
:1007900022EA0101016070476420CAF20000026A87
:1007A0001143016270476420CAF20000026C1143D9
:1007B000016470476420CAF20000026A22EA010163
:1007C000016270476420CAF20000026C22EA010153
:1007D0000164704764221028CAF2000204D0B0F508
:1007E000807F14BF403220321068084018BF0120BB
:1007F000704700BF64221028CAF2000204D0B0F58E
:10080000807F14BF403220321068884310607047E8
:1008100064221028CAF2000204D0B0F5807F14BF11
:1008200040322032106810EA010200EAD10018BFFD
:100830000122002818BF01201040704764221028B0
:10084000CAF2000204D0B0F5807F14BF40322032DB
:10085000106820EAD100106070470000A0F18040CD
:10086000A0F584304FEAB020062888BF704710B545
:1008700044F2BC11C0F6000151F82040012120468D
:1008800000F084FA20460021BDE8104000F07EBA56
:1008900080B50120012100F079FA01200021BDE896
:1008A000804000F073BA00BF2DE9F047CA7802F02B
:1008B0000F0CD30644BF8B784CEA030C09880B0657
:1008C00025D082465AF8144B00F1100E00254FF047
:1008D00001094FF00F08002706E000BF1E60013736
:1008E000082F05F1040511D009FA07F60E42F6D0DB
:1008F00008FA05F324EA03030CFA05F41C43282A3A
:100900005346EBD0482AEAD17346E7E70460B1F5D5
:10091000807F38BFBDE8F087436800F1100E00F11A
:10092000140900254FF4807A4FF00F08002705E0E6
:1009300034600137082F05F1040512D00AFA07F4D4
:1009400004EA0106A642F4D108FA05F6B3430CFA0C
:1009500005F63343282A4E46EAD0482AE9D176469E
:10096000E6E74360BDE8F0874FF6FF71C0F2024151
:10097000016070478068084018BF0120704700BFC1
:10098000806880B2704700BFC068084018BF01206F
:10099000704700BFC06880B2704700BF01617047F8
:1009A000416170471023002A08BF1423C1507047CB
:1009B000C160704701F58032826181618261816925
:1009C0008069704740F2000CC4F2010CDCF8003082
:1009D0004FF680721A4041EA00101043CCF8000034
:1009E000704700BF1C21C4F220210860704700BF7F
:1009F000B0B50422C4F20102134602F1180E002819
:100A000048BF73461C6800F44013B3F5401F1FFA3B
:100A100080FC06D1156824F0706325F070641460C2
:100A200015E0C3020AD46FF00F0303EA50430CFA37
:100A300003F324EA030343F0706308E0C0F30343C5
:100A4000032505FA03F324EA030343F070636FF010
:100A50000F0404EA504400290CFA04F518BF2B4394
:100A6000002848BF72461360B0BD00BF10B50C220D
:100A7000082402EA810201F0FC01C4F201044FF0F3
:100A80000F0C51F804E00CFA02F32EEA03030B51A9
:100A90000B5990401843085110BD00BFDC21C4F22F
:100AA000202108607047000041F20000C4F20200FB
:100AB0000168002241F0010101604168CFF6FF02A8
:100AC0001140416001684FF6FF72CFF6F6621140A7
:100AD0000160016821F480210160416821F4FE0178
:100AE00041604FF41F018160704700BF41F2000177
:100AF000C4F202010A68B0F5803F22F480320A6035
:100B00000A6822F480220A6005D0B0F5802F18BF51
:100B100070474FF4A0200A6810430860704700BF78
:100B200081B041F20000C4F202000021009100BF38
:100B30000168009A01320092009AB2F5A06F02D0CB
:100B400011F40031F4D00068C0F3404001B07047A8
:100B5000420941F20001012AC4F2020103D0022A33
:100B600014BF24312031096800F01F0021FA00F081
:100B700000F00100704700BF41F20001C4F2020121
:100B80000A6822F0F80242EAC0000860704700BF1D
:100B90000021C4F242210860704700BF41F2040204
:100BA000C4F202021368084323F47C131843106054
:100BB000704700BF6021C4F242210860704700BF47
:100BC00041F20401C4F202010A6822F00302104358
:100BD0000860704741F20400C4F20200006800F0AF
:100BE0000C00704741F20401C4F202010A6822F0CD
:100BF000F00210430860704741F20401C4F20201A0
:100C00000A6822F4E06210430860704741F2040170
:100C1000C4F202010A6822F4605242EAC00008608D
:100C2000704700BF002941F20901C4F202010A78AD
:100C30000CBF22EA0000104308707047D821C4F2AC
:100C400042210860704700BF41F20401C4F2020172
:100C50000A6822F4404210430860704741F22001C4
:100C6000C4F20201002201280A700A7003D004288D
:100C700018BF704705200870704700BF40F28041E0
:100C8000C4F242210860704741F22001C4F202011F
:100C90000A6810430860704740F23C41C4F24221A8
:100CA0000860704710B541F20404C4F202042268DF
:100CB00002F00C02082A41F20022C0F27A021CD192
:100CC0002368D4F800C0C3F3834E5FEACC330EF13F
:100CD000020C06D440F60012C0F23D020CFB02F2F8
:100CE0000BE023689B0302D40CFB02F205E040F604
:100CF0000012C0F23D020CFB02F20260226844F2D4
:100D0000EC13C2F30312C0F600039A5C0168D140F1
:100D100041602268C2F302229A5C21FA02F28260E8
:100D20002268C2F3C2229A5C44F2D813D140C16057
:100D30002268C0F60003C2F381329A5CB1FBF2F183
:100D4000016110BD002941F21401C4F202010A68D8
:100D50000CBF22EA0000104308607047002941F2EE
:100D60001801C4F202010A680CBF22EA0000104315
:100D700008607047002941F21C01C4F202010A68B0
:100D80000CBF22EA0000104308607047002941F2BE
:100D90000C01C4F202010A680CBF22EA00001043F1
:100DA00008607047002941F21001C4F202010A688C
:100DB0000CBF22EA000010430860704740F2404137
:100DC000C4F24221086070474C21C4F242210860FD
:100DD000704700BF41F20701C4F20201087070477A
:100DE00041F22400C4F20200016841F08071016008
:100DF000704700BF41F20801C4F2020109680840CF
:100E000018BF0120704700BF41F20A01C4F202017D
:100E10000870704780B541F6FF71C4F20001884246
:100E200028DD44F2FF31C4F2010188423FDD44F67F
:100E3000FF31C4F2010188426EDD44F60041C4F284
:100E40000101884200F0B58045F20001C4F20101C1
:100E5000884200F0B68045F20041C4F201018842A8
:100E600018BF80BD4FF400100121FFF78FFF4FF432
:100E70000010D7E040F6FF71C4F20001884232DC76
:100E800040F2FF71C4F2000188425ADCB0F1804F99
:100E900000F09F8040F20041C4F20001884240F01F
:100EA000D08002200121FFF77DFF0220C4E043F241
:100EB000FF31C4F20101884255DC42F20001C4F264
:100EC0000001884200F08B8042F60041C4F201012B
:100ED000884240F0B6804FF400600121FFF756FFD2
:100EE0004FF400609EE041F2FF71C4F200018842BD
:100EF0004DDC41F20001C4F20001884277D041F29A
:100F00000041C4F20001884240F09B802020012172
:100F1000FFF748FF20208FE044F20041C4F20101B6
:100F200088426AD044F60001C4F20101884240F0D0
:100F300088804FF480200121FFF728FF4FF48020A4
:100F400070E040F60001C4F2000188425DD040F636
:100F50000041C4F20001884273D108200121FFF74B
:100F600021FF082068E043F20041C4F201018842F9
:100F700051D044F20001C4F20101884261D14FF422
:100F800080300121FFF702FF4FF480304AE041F644
:100F90000001C4F20001884249D041F60041C4F288
:100FA000000188424DD180200121FFF7FBFE802007
:100FB00042E04FF400200121FFF7E8FE4FF400204B
:100FC00030E04FF480100121FFF7E0FE4FF4801075
:100FD00028E001200121FFF7E5FE01202CE04FF47D
:100FE00080700121FFF7DEFE4FF4807024E01020B6
:100FF0000121FFF7D7FE10201EE04FF40030012141
:10100000FFF7C4FE4FF400300CE004200121FFF78D
:10101000C9FE042010E04FF400500121FFF7B6FE96
:101020004FF400500021BDE88040FFF7AFBE4020E4
:101030000121FFF7B7FE40200021BDE88040FFF707
:10104000B1BE80BD40F6FF33B0F800C0C4F200036B
:1010500098420FDCB0F1804F1ED040F20043C4F242
:101060000003984218D040F60003C4F200039842EF
:1010700012D016E040F60043C4F2000398420BD0B1
:1010800043F20043C4F20103984205D042F6004304
:10109000C4F20103984204D14B882CF0700243EA59
:1010A000020C41F2004240F48063C4F20002934219
:1010B00004D0CA882CF4407342EA030CA0F800C0A4
:1010C0008A888285A0F18042A2F596320B884FEA89
:1010D000B222072A038507D8012303FA02F212F08D
:1010E000E50F1CBF097A018601218182704700BF8C
:1010F000B0B5028C22F001020284038C8288B0F821
:1011000018C00C8923F002032343A0F180444D88CA
:10111000A4F59634B1F800E04FEAB424072C43EA72
:10112000050313D8012505FA04F414F0E50F0DD0DA
:101130004C8923F00C0324F004048D8823438C890C
:101140002B4322F44072CD8922432A432CF07305AD
:1011500045EA0E0582800583C98881860384B0BD77
:10116000B0B5028C22F010020284038C8288B0F8A1
:1011700018E00C894D88B1F800C02C4343F20045BB
:1011800023F02003C4F20105A84243EA041305D06A
:1011900042F60044C4F20104A04211D14C896FF020
:1011A000400523F0C00305EA04148D88234343EA75
:1011B00005138C89CD8922F440622C4342EA8402D3
:1011C0002EF4E64545EA0C2582800583C98801870F
:1011D0000384B0BDB0B5028C22F480720284038C0B
:1011E0008288B0F81CE00C894D88B1F800C02C430F
:1011F00043F2004523F40073C4F20105A84243EA18
:10120000042305D042F60044C4F20104A04211D1E7
:101210004C8940F2FF45240223F44063AC438D889F
:10122000234343EA05238C89CD8922F440522C4381
:1012300042EA04122EF0730545EA0C05828085838C
:10124000C98881870384B0BD70B5028C43F2004623
:1012500022F480520284038C8288B0F81CE0B1F83A
:1012600000C00C894D88C4F20106B04205D042F698
:101270000046C4F20106B04204D18E8922F48042B5
:1012800042EA86122EF4E64646EA0C2682808683DF
:1012900023F400532C43C98843EA0432A0F84010D9
:1012A000028470BDF0B50A88082A29D0042A52D0D9
:1012B000002A7BD14B88B1F804C0B1F808E0028C59
:1012C00040F6FF3622F001020284024632F8184F3F
:1012D000058CC4F20006B0424FF6FC7600F38F8016
:1012E000B0F1804F00F09E8040F20047C4F200074A
:1012F000B84200F0978040F60007C4F200078EE085
:101300004B88B1F804C0B1F808E0028C40F6FF3712
:1013100022F480720284024632F81C4F058C6FF46E
:101320004056C4F20007B84206F5145600F38B800D
:10133000B0F1804F00F0998040F20047C4F20007FE
:10134000B84200F0928040F60007C4F20007B842AD
:1013500000F08B808EE04B88B1F804C0B1F808E053
:10136000028C40F6FF3722F010020284024632F867
:10137000184F058C6FF00306C4F20007B842A6F1BF
:10138000AD0600F38880B0F1804F00F0968040F207
:101390000047C4F20007B84200F08F8040F6000713
:1013A000C4F20007B84200F088808AE04B88B1F8A8
:1013B00004C0B1F808E0028C40F6FF3622F48052F7
:1013C0000284024632F81C4F058CC4F20006B0427B
:1013D00046F6FF5600F38980B0F1804F00F0978009
:1013E00040F20047C4F20007B84200F0908040F697
:1013F0000007C4F20007B84200F089808AE040F696
:101400000047C4F20007B8420CD042F60047C4F2CD
:101410000107B84206D043F20047C4F20107B842C0
:1014200018BF083E35402B4324F0F3044CEA0E1756
:1014300043F00103274307830384C988038B23F008
:101440000C0303837AE040F60047C4F20007B84279
:101450000BD043F20047C4F20107B84205D042F670
:101460000047C4F20107B84204D14CF6FF761B02D4
:1014700006F5345635402B4324F0F3044CEA0E179E
:1014800043F48073274387830384C988838B23F0C5
:101490000C03838352E040F60047C4F20007B842D1
:1014A0000BD043F20047C4F20107B84205D042F620
:1014B0000047C4F20107B84203D14FF6FC761B0186
:1014C0002D3E35402B4340F6FF452C4044EA0E3775
:1014D00043F0100347EA0C2707830384C988038B72
:1014E000090223F44063038328E040F60047C4F276
:1014F0000007B8420BD043F20047C4F20107B842DC
:1015000005D042F60047C4F20107B84202D14CF6BA
:10151000FF761B0335402B4340F6FF454FEA0E375D
:101520002C4047EA0C2743F48053274387830384E6
:10153000C988838B090223F440638383108808439E
:101540001080F0BD028B22F00C020283028B11434B
:1015500001837047028B22F440620283028B42EACD
:1015600001210183704700BF828B22F00C0282832D
:10157000828B114381837047828B22F44062828385
:10158000828B42EA01218183704700BF2DE9F04F31
:101590004E888D884FF0010BB6FA86F2012D08BFF8
:1015A0004FF0020B0C885709B1F808A0038C4FF6D6
:1015B000FC7E4FF6FC784FEA470CE4B123F01003B1
:1015C000038440F6FF39048B078CC4F200094845B8
:1015D000AEF1AD032ADCB0F1804F39D040F20042C9
:1015E000C4F20002904233D040F60002C4F200027E
:1015F00090422DD02FE023F00103038440F6FF3901
:10160000048B078CC4F20009484577DCB0F1804FA9
:1016100000F0888040F20043C4F20003984200F0DA
:10162000818040F60003C4F2000377E040F60042F8
:10163000C4F2000290420BD043F20042C4F2010215
:10164000904205D042F60042C4F20102904202D11B
:101650003601AEF12D0307EA030240F6FF432340B3
:10166000324343EA0A3342F0100243EA052303837C
:101670000284C988028B484522F440620283028BAF
:1016800042EA01220283028C22F001020284048BCE
:10169000058C0DDCB0F1804F1ED040F20042C4F248
:1016A0000002904218D040F60002C4F200020FE09F
:1016B00040F60042C4F2000290420DD042F60042D1
:1016C000C4F20102904207D043F20042C4F2010288
:1016D000904218BFAEF1080805EA080224F0F303AF
:1016E00042EA0C0243EA0A1342F001025B4403831C
:1016F0000284028B22F00C0202836CE040F600436D
:10170000C4F2000398420DD042F60043C4F2010334
:10171000984207D043F20043C4F20103984218BF35
:10172000AEF1080807EA080324F0F304334344EA5F
:101730000A1443F001032C4304830384C988038BF8
:10174000484523F00C030383038BAEF1AD0643EA57
:1017500001030383038C23F010030384048B058CA3
:101760000FDCB0F1804F1ED040F20043C4F2000302
:10177000984218D040F60003C4F20003984212D0F9
:1017800015E040F60043C4F2000398420BD043F248
:101790000043C4F20103984205D042F60043C4F26C
:1017A0000103984203D14FEA0C1CAEF12D0640F61E
:1017B000FF4705EA0603274043EA0C0347EA0A37D6
:1017C00043F0100347EA0B2202830384028B0902D1
:1017D00022F440620283028B11430183BDE8F08F43
:1017E000B1F800C04B888A8843EA0C0343EA020C34
:1017F000CB880A8943EA0C031A434B8989891A4327
:101800001143A0F84410704700220021CFF6FF7268
:101810000180C180C0F80220017270470021C160C0
:1018200081604160016070470021012201604260D7
:1018300001817047002181818160416001607047B2
:101840000288002918BF012122F001021144018001
:10185000704700BFB0F84420002918BF01216FF382
:10186000DF3242EAC131A0F844107047002A828971
:101870000CBF22EA010111438181704781827047C8
:101880001143A0F848107047002A82890CBF22EA51
:101890000101114381817047018921F00701018114
:1018A000704700BF028922F0700211430181018953
:1018B00041F0070101817047028922F07002114353
:1018C0000181704770B5058C60294FF6FC7C1DD1F5
:1018D00025F01005058440F6FF35B0F818E0048CBB
:1018E000C4F20005A842ACF1AD0529DCB0F1804F8F
:1018F00038D040F20046C4F20006B04232D040F682
:101900000006C4F20006B0422CD02EE025F00106FD
:10191000068440F6FF35B0F818E0048CC4F20005E8
:10192000A8422FDCB0F1804F40D040F20045C4F215
:101930000005A8423AD040F60005C4F2000531E0A7
:1019400040F60046C4F20006B0420BD043F2004617
:10195000C4F20106B04205D042F60046C4F20106C8
:10196000B04202D11201ACF12D0504EA0506324362
:1019700040F6FF4642F010020EEA06041D034FF443
:1019800080731CE040F60045C4F20005A8420DD06B
:1019900042F60045C4F20105A84207D043F20045D3
:1019A000C4F20105A84218BFACF1080C04EA0C0609
:1019B000324342F001022EF0F3051C01012344EAF8
:1019C0000506334303830284028922F07002114327
:1019D0000181018941F00701018170BDB0F808C0A3
:1019E00011435FFA8CFC41EA032141EA0C010181B9
:1019F000018941F077010181704700BFB0F808C04C
:101A000011435FFA8CFC41EA032141EA0C01018198
:101A1000704700BFB0F808C011435FFA8CFC41EA80
:101A2000032141EA0C010181018941F480410181D6
:101A3000704700BF01858282704700BF028822F094
:101A40007002114301807047B0B5B0F808C0B0F81B
:101A500018E0058C2CF0070421434FF6FC4404EAFF
:101A60000E0425F0220542EA031204F201142A436F
:101A7000018104830284B0BD028B22F07002114305
:101A800001837047028B22F4E04242EA0121018384
:101A9000704700BF828B22F0700211438183704730
:101AA000828B22F4E04242EA01218183704700BF29
:101AB0000288002918BF012122F0800242EAC111E8
:101AC000018070478288002918BF012122F004029A
:101AD00042EA8101818070478288002918BF012174
:101AE00022F0080242EAC101818070478288002901
:101AF00018BF012122F0010211448180704700BF0C
:101B0000028B22F00802114301837047028B22F4FA
:101B1000006242EA01210183704700BF828B22F0FC
:101B20000802114381837047828B22F4006242EAEB
:101B300001218183704700BF028B22F00402114310
:101B400001837047028B22F4806242EA0121018303
:101B5000704700BF828B22F00402114381837047DB
:101B6000828B22F4806242EA01218183704700BFA8
:101B7000028B22F08002114301837047028B6FF3C6
:101B8000DF3242EA01210183704700BF828B22F0DD
:101B90008002114381837047828B6FF3DF3242EA08
:101BA00001218183704700BF028C22F002021143A1
:101BB00001847047028C22F00802114301847047AF
:101BC000028C22F0200242EA01110184704700BF1A
:101BD000028C22F0800242EA01110184704700BFAA
:101BE000028C22F4007242EA01210184704700BF96
:101BF000028C22F4006242EA01210184704700BF96
:101C0000028C22F4005242EA01310184704700BF85
:101C100080B54FF0010CB0F820E00CFA01F32EEA89
:101C200003030384038C02FA01F11943018480BD8C
:101C300080B54FF0040CB0F820E00CFA01F32EEA66
:101C400003030384038C02FA01F11943018480BD6C
:101C500010B54FF0010CB0F820E00CFA01F32EEAB9
:101C6000030C6FF0080300F118041942A0F820C01B
:101C70000AD0081F80B24108635804EB500023F4D7
:101C8000E0431202635007E04B0853F804C004EB32
:101C900051002CF070011951016892B2114301609A
:101CA00010BD00BF0288002918BF012122F00202E6
:101CB00042EA4101018070470288002918BF0121D2
:101CC00022F0040242EA81010180704782880029E3
:101CD00018BF012122F0800242EAC11181807047C1
:101CE000028822F0080202800288114301807047B6
:101CF000828822F07002828082881143818070473E
:101D0000028922F007020281028911430181704792
:101D1000028922F080020281028911430181704709
:101D2000818470478185704781867047018770473D
:101D300081877047A0F84010704700BF028822F4E6
:101D4000407202800288114301807047808E704784
:101D5000008F7047808F7047B0F84000704700BF19
:101D6000808C7047008D7047008A084018BF0120A2
:101D7000704700BFC9430182704700BF028A808953
:101D80000A4000EA010018BF0122002818BF012004
:101D900010407047C94301827047000080B544F687
:101DA000FF31C4F2000188421EDD44F60041C4F256
:101DB000000188422CD045F20001C4F200018842A3
:101DC0002ED043F60001C4F20101884218BF80BD45
:101DD0004FF480400121FEF7D9FF4FF480400021ED
:101DE000BDE88040FEF7D2BF44F20041C4F20001DA
:101DF00088421DD044F60001C4F20001884223D17C
:101E00004FF480200121FEF7CDFF4FF4802016E033
:101E10004FF400200121FEF7C5FF4FF400200EE033
:101E20004FF480100121FEF7BDFF4FF4801006E053
:101E30004FF400300121FEF7B5FF4FF400300021D0
:101E4000BDE88040FEF7AEBF80BD00BF70B586B074
:101E50000446008A0D46C98820F440500843208279
:101E6000A0894EF6F3110840A9882A896B89084396
:101E700010431843A081A08AA98920F44070084328
:101E800001AEA0823046FEF70DFF43F6000106F1D9
:101E90000800C4F201018C4208BF06F10C00006882
:101EA0001922B4F90C1050432A680123B1F1FF3F05
:101EB000C8BF022302FA03F1B0FBF1F048F21F5150
:101EC000C5F2EB11A0FB01235A096FF0630302FB7B
:101ED0000300B4F90C300326B3F1FF3FC8BF04265A
:101EE00000FA06F000F13200A0FB01014FF00700FC
:101EF000C8BF0F2000EA511040EA0210208106B04E
:101F000070BD00BF4FF4165100224FF4402380E80B
:101F10000E008281704700BF80B5028A0B8822F4D0
:101F2000706C4A88B1F804E043EA0C03C9881A438C
:101F300042EA0E021143018280BD00BF00214160D0
:101F4000016070478289002918BF012122F40052E4
:101F500042EA413181817047C1F3421301F01F0C05
:101F60001421022B08BF1021012B4FF0010308BFE1
:101F70000C21002A03FA0CF243580CBF23EA020298
:101F80001A434250704700BF002A828A0CBF22EADF
:101F90000101114381827047028A22F00F020282FE
:101FA000028A114301827047828922F40062828191
:101FB00082891143818170478289002918BF0121DC
:101FC00022F0020242EA410181817047028A22F036
:101FD00020020282028A114301827047028A00298C
:101FE00018BF012122F4804242EA81310182704708
:101FF0006FF35F218180704780886FF35F207047A7
:10200000818941F001018181704700BF028BD2B20A
:102010000283028B42EA012101837047028B22F086
:10202000FF020283028B114301837047828A0029D9
:1020300018BF012122F0200242EA4111818270473B
:10204000828A002918BF012122F0100242EA011100
:1020500081827047828A002918BF012122F008027C
:1020600042EAC101818270478289002918BF01219B
:102070006FF3DF3242EAC13181817047828A0029E1
:1020800018BF012122F4006242EAC1218182704717
:10209000828A22F004028282828A114381827047FE
:1020A000828A002918BF012122F0020242EA41017E
:1020B000818270470088084018BF0120704700BF28
:1020C000C9430180704700BFC1F34212022A06D003
:1020D000012A14BF00F1140200F10C0201E000F12A
:1020E00010021288008801F01F03090ADA40C84074
:1020F000104000F001007047090A012202FA01F1C4
:10210000C94301807047000070B540F60044C4F236
:10211000010400F0D3F800F09DF900F007FA00F098
:1021200043FA01F0BFFE20460221FEF739FC04F518
:1021300030552846012100F00DF92846FFF75CFFD5
:1021400040F22C06C2F20006012830600BD04FF49A
:102150007A7001F081FE2846012100F0FBF8284644
:10216000FFF74AFFF0E720460221FEF717FC204662
:102170002021FEF715FC642001F06EFE20460121AF
:10218000FEF70EFC122502E000F0C8FA1DE001F097
:1021900013FF306801F05AFF3068092815D8DFE8CE
:1021A00000F03814051614141414142500F082F9E4
:1021B000002000F08BFA20460121FEF7F1FB4FF4DE
:1021C0007A7001F049FE0020DEE73560DFE700F0BD
:1021D00071F9012000F07AFA20462021FEF7E0FB99
:1021E0004FF47A7001F038FE0120CDE700F062F97B
:1021F00020460121FEF7D4FB20462021FEF7D0FB2C
:1022000020460221FEF7CCFB642001F025FE35605C
:10221000BDE700F04FF9002000F058FA012000F06F
:1022200055FA4FF47A7001F017FE012000F076FAAB
:10223000002000F073FA002070BD0000704700BF5E
:10224000FEE700BFFEE700BFFEE700BFFEE700BFFE
:10225000704700BF704700BF704700BF704700BFA6
:1022600010B543F60004C4F20104204640F22551A3
:10227000FFF72AFF002808BF10BD2046FFF7BCFE6D
:1022800040F22C030246C2F20003204620211A70BD
:10229000BDE81040FFF714BF10B541F20004C4F2CE
:1022A000000420460121FFF769FD002808BF10BD8A
:1022B00020460121BDE81040FFF76CBDF0B587B0A6
:1022C000042001210427FEF749FD4FF4804001213D
:1022D000FEF744FD43F6000440F20020C4F201047E
:1022E000C1F60300A4F5405505AE059028463146D9
:1022F000FEF7DAFA4FF48060ADF814002846314654
:102300008DF81770FEF7D0FA4FF4E13001900020FD
:102310004FF4402102900391ADF8100001A920462E
:10232000FFF794FD4FF4A060FDF7DEFF40F22510AB
:10233000C0F20110069006A8FDF7E0FF204640F22B
:1023400025510122FFF708FE20460121FFF7FAFD83
:1023500007B0F0BD10B50446FFF74AFE20468021C5
:10236000FFF7A8FE0028F9D010BD00BFF0B581B07E
:1023700004469AB115460E46002700BFF8B2315CFC
:102380002046FFF735FE00BF20468021FFF792FE72
:102390000028F9D00137F8B2A842EFD320464021F7
:1023A000FFF788FE0028F9D001B0F0BD70B50D46EA
:1023B00004460026A95D2046FFF71AFE204680212C
:1023C000FFF778FE0028F9D00136A85D0028F1D18A
:1023D00020464021FFF76EFE0028F9D070BD00BFF7
:1023E000B0B50D46090A0446FFF702FE20468021DB
:1023F000FFF760FE0028F9D0E9B22046FFF7F8FDAC
:1024000020468021FFF756FE0028F9D0B0BD00BF5E
:10241000B0B543F60005C4F201050446C1B2284632
:10242000FFF7E6FD28468021FFF744FE0028F9D09B
:102430002046B0BD10B543F60004C4F2010400BF4D
:1024400020462021FFF736FE0028F9D02046FFF76E
:10245000D3FD10BDF0B581B0082001210126FEF7A3
:102460007DFC202040F60044C1F20100C4F20104CA
:10247000009020460121FEF791FA20460221022712
:10248000FEF78CFA20462021FEF788FA6D4620469A
:102490002946FEF709FA20462946ADF80060FEF706
:1024A00003FA20462946ADF80070FEF7FDF901B0A9
:1024B000F0BD00BF10B540F60044C4F20104204650
:1024C0002021FEF76BFA20460121FEF767FA20462D
:1024D0000221BDE81040FEF761BA0000B0B584B03B
:1024E00010200121FEF746FC01AC2046FFF78CF9D5
:1024F00040F2E730C0F2001041F20005029048F6C9
:102500009F40C4F20005019028462146FEF79AFD3F
:102510003620C0F2031000906846FDF7EFFE284613
:102520000121FFF78DF904B0B0BD00BF10B588B030
:1025300001200121FEF71EFC4FF08040FFF7ACF9AF
:1025400004200121FEF70AFC05AC2046FFF75CF9E8
:1025500044F61F600690472005904FF080402146CA
:10256000FEF770FD01AC2046FFF758F96020C0F27D
:10257000010001900020CDF80A004FF08040214674
:10258000FEF728FE4FF080400121FFF759F90420A3
:10259000C1F60300009040F60000C4F20100694655
:1025A000FEF782F908B010BDB0B588B00420012153
:1025B000FEF7E0FB40F60004C4F200042046FFF7FB
:1025C0006BF908200121FEF7C9FB05AD2846FFF78E
:1025D0001BF944F61F6006904720059020462946C7
:1025E000FEF730FD01AD2846FFF718F96020C0F274
:1025F000010001900020CDF80A0020462946FEF790
:10260000E9FD20460121FFF71BF940F20010C1F659
:102610000300009004F582306946FEF745F908B0E2
:10262000B0BD00BFB0B588B002200121FEF7A2FB0B
:1026300040F20044C4F200042046FFF72DF90820C0
:102640000121FEF78BFB05AD2846FFF7DDF863207F
:10265000069040F2CF20059020462946FEF7F2FC76
:1026600001AD2846FFF7DAF86020C0F201000190C2
:102670004FF40030CDF80A0020462946FEF7E4FD6D
:102680000220C1F60300009004F584306946FEF78D
:102690000BF920460121FFF7D3F808B0B0BD00BF09
:1026A00081B240F20040C4F20000FFF743BB00BF1C
:1026B00081B24FF08040FFF73BBB00BF81B240F6D4
:1026C0000000C4F20000FFF733BB00BFB0B590B10B
:1026D000012818BFB0BD4FF4206400BF14203C3C5B
:1026E00001F0BAFBA1B24FF08040FFF721FBB4F537
:1026F0000C7FF3D811E040F600044FF42065C4F2DB
:10270000000400BF14203C3D01F0A6FBA9B2204606
:10271000FFF70EFBB5F50C7FF4D8B0BD70B598B1DE
:10272000012818BF70BD4FF4967440F6FC0500BF39
:10273000C834A1B24FF08040FFF7FAFA0A2001F046
:102740008BFBAC42F4D311E040F600044FF4E1758A
:10275000C4F2000440F692163235A9B22046FFF7C3
:10276000E7FA142001F078FBB542F5D370BD000004
:102770002DE9F04F97B041F2004460200121C4F2EE
:1027800001040125FEF7EAFA44F20000C1F6030055
:1027900008AE089020463146FEF786F84FF4004B0D
:1027A00020463146ADF820B0FEF77EF8204631468F
:1027B000ADF82050FEF778F80220ADF82000204652
:1027C0003146FEF771F8802004F58065ADF82000F1
:1027D00028463146FEF768F84FF48078284631469F
:1027E000ADF82080FEF760F84FF4007928463146B6
:1027F000ADF82090FEF758F84FF4806A284631462D
:10280000ADF820A0FEF750F84FF400672846314697
:10281000ADF82070FEF748F84FF48050ADF8200076
:1028200028463146FEF740F84FF40050ADF820003E
:1028300028463146FEF738F84FF48040ADF82000C6
:1028400028463146FEF730F828463146ADF820B02C
:10285000FEF72AF820463146ADF82080FEF724F82E
:1028600020463146ADF82090FEF71EF8204631464E
:10287000ADF820A0FEF718F81020C1F6030008906C
:1028800020463146FEF710F82020ADF82000204603
:102890003146FEF709F88020ADF820002046314689
:1028A000FEF702F820463146ADF82070FDF7FCFF38
:1028B0000220C1F20300089028463146FDF7F4FFDC
:1028C00041F20000C1F20300089020463146FDF7B6
:1028D000EBFF08AE30463C2101F043FC00274FF4EB
:1028E000807001210797CDE90577CDE90377CDE920
:1028F0000177FEF727FA01200190042003904FF0A2
:102900008050CDE9067008200A901020CDE90B0711
:102910004FF48050CDE9110701A8CDE915003046EC
:102920000297CDE90477CDE90877CDE90E771097C6
:10293000CDE91377FDF77AFD00200121FDF7A0FE18
:1029400020464FF48051FEF72BF828460221FEF76F
:1029500027F840F6FF240894089818B10898013821
:102960000890F9E728460221FEF718F8089400BFFE
:10297000089818B1089801380890F9E700204FF03E
:10298000C0430421C6F20200198001880188018831
:10299000028842EA012297B248F252518F4211D086
:1029A000D3221A80028802880288038849F24137BC
:1029B00043EA022293B20022BB4204BF49F24132F1
:1029C000CFF6FF7240F22A0A93B2C2F2000A8B429B
:1029D000AAF8002000F0C08049F241318B4240F05B
:1029E00062814FF0C042CF21118000238121302726
:1029F000ED240380018007801480642404804FF05C
:102A000003081224A0F8008004800180E8211180CE
:102A1000852101804FF0100A7821A0F800A00180E4
:102A2000CB2111804FF039092C21A0F800900180B2
:102A30003421038001800621F724018014802024A2
:102A40000480EA241480B1240380038014801B24B2
:102A5000B6250380048015800A250580A225C0269E
:102A60000580168035260680C12616804FF0110B92
:102A7000C526A0F800B01680452606800680C72629
:102A800016800580F225158026274FF0010EE025DF
:102A900003801780A0F800E015800F2505800780CF
:102AA000242707800B2707800E27078009274FF070
:102AB000540CA8260780A0F800C006804626068091
:102AC0000C2606801726068007800727E12605804A
:102AD0000780038016801926038006800426048060
:102AE0000680A0F800A007802A27472607800680D6
:102AF000A0F80090A0F800800180018030210180C2
:102B000038210180362105801180C8210180EF2104
:102B1000178003800380038001802B2111803F21D7
:102B200003800380A0F800E001803A211180552144
:102B300001804BF6FC71A2F800B0C0F2020100BFA8
:102B40000891089911B108990139F9E740F22A0A68
:102B50002921C2F2000AA3E04FF0C042CF21118028
:102B60000023C1214FF0300CED2703800180A0F835
:102B700000C017806427078003270780122781265B
:102B800007800680E82616808526068010260680A7
:102B900078260680CB261680392606802C260680CD
:102BA00034264FF00209F72403800680A0F8009035
:102BB000148020240480EA241480C024038003802D
:102BC00014802124048011804FF0110EC521A0F83B
:102BD00000E011804FF02D083321A0F80080018023
:102BE000362111803A210380118055210180B121C5
:102BF00011801721B6250380018015800A250580E4
:102C0000A2250580F62515800125F2240580A0F86F
:102C100000C014802624038014800580E0251580E0
:102C2000D02407260B2504800380A0F8009006809E
:102C300005801A250580312505805425058040250D
:102C40000580292505800780078007800180E12114
:102C50001180052104800380A0F800900680018087
:102C6000252101804421A0F80080018045210180B8
:102C70001C211823018003801623038001801D215D
:102C800001804BF6FC71A2F800E0C0F2020100BF27
:102C90000891089911B108990139F9E72C2115809B
:102CA0004FF0C042118040F21801C2F200010B78CF
:102CB000072B46D813F001014FF4A07140F21A021D
:102CC00008BFF0214FF0F007C2F2000208BF4FF436
:102CD000A077118040F21C01C2F200010F804FF07A
:102CE000C04736263E80BAF8007048F25256B742C6
:102CF00006D049F24136B74204D15B01083300E007
:102D00005B0103804FF0C0432A271F800027078004
:102D100007801688013EB6B2360A06801288013A4C
:102D2000D2B202802B221A80078007800A88013ADB
:102D300092B2120A028009880139C9B201802C209E
:102D4000188017B0BDE8F08F002841F20040C4F2AF
:102D500001004FF4805108BFFDF720BEFDF720BEF3
:102D6000B0B582B041F60004C4F20104204602214D
:102D7000FDF716FE40F6FF25009500BF009818B13C
:102D8000009801380090F9E720460221FDF706FE81
:102D90000195019830B100BF019801380190019868
:102DA0000028F9D102B0B0BD072888BF704780B5B0
:102DB00040F21801C2F20001087010F001014FF456
:102DC000A0714FF0F00240F21A0E40F21C0C08BF46
:102DD000F02108BF4FF4A072C2F2000EC2F2000C44
:102DE000AEF80010ACF800204FF0C04136220A8047
:102DF00040F22A01C2F20001098848F2525291427F
:102E000040F20002C6F2020206D049F24133994272
:102E100004D14001083000E0400110804FF0C04074
:102E20002A210180002111801180BEF80030013B71
:102E30009BB21B0A1380BEF80030013BDBB213804B
:102E40002B23038011801180BCF80010013989B256
:102E5000090A1180BCF800100139C9B211802C2177
:102E60000180BDE88040704700204FF0C04C042234
:102E7000C6F20200ACF800200288028802880388AB
:102E800048F2525143EA022293B28B4212D0D3212C
:102E9000ACF800100188018801880088002240EA0F
:102EA000012080B249F24131884204BF49F24132E7
:102EB000CFF6FF7290B27047B0B54FF0C04C4FF0F4
:102EC0002A0EACF800E04FEA102EC4B210440025E0
:102ED0000138C6F20205020AC0B2A5F800E02C8053
:102EE0002A8028802B20ACF80000080A2880C8B26D
:102EF0002880C8180138010AC0B229802880B0BDD6
:102F000010B540F2000C4FF0C04E2A24C6F2020C5D
:102F1000AEF80040040AACF80040C4B210440138D6
:102F2000ACF80040040AC0B2ACF80040ACF80000B5
:102F30002B20AEF80000080AACF80000C8B2ACF8CC
:102F40000000C8180138010AACF80010C0B240F205
:102F50000001ACF8000003FB02F0C2F20001098896
:102F60002C220028AEF8002008BF10BD0138ACF8B4
:102F70000010FBD110BD00BF40F21A02C2F20002E5
:102F80001288824227D940F21C02C2F20002128843
:102F90008A4298BF70474FF0C04C2A230022ACF8F9
:102FA0000030030AC6F20202C0B213801080138000
:102FB00010802B20ACF80000080AC9B210801180E4
:102FC000108040F228001180C2F2000000882C21FD
:102FD000ACF80010108070474FF0C04C2A2300223C
:102FE000ACF80030030AC6F20202C0B213801080AF
:102FF000138010802B20ACF80000080AC9B21080A2
:10300000118010802E201180ACF8000010881088EC
:10301000118800F4784200F0FC0042EAC00040EA67
:10302000D12070472DE9F04F82B0141A121A18BF40
:103030004FF0FF320192002C009444BF6242009294
:10304000002C019FA3EB0105C8BF01275E1A019761
:1030500018BF4FF0FF36002D2A4648BF6A42002DA8
:10306000C8BF0126009B40F2000E1546C6F2020EB4
:10307000934288BF1D4605F1010C00274FF0000B5D
:103080004FF0000913E000BF009B17449B44AB4581
:10309000019B09F10109C4BF1844ABEB050BAF421A
:1030A0001FFA89F3C4BF31447F1B9C453BD340F2D8
:1030B0001A03C2F20003B3F800801FFA80FAD04569
:1030C000E2D940F21C03C2F200031B888CB2A34277
:1030D000DAD9904632464FF0C0462A233380C0F3F7
:1030E0000723C4B2AEF80030AEF80040AEF80030AE
:1030F0002B23AEF800403380C1F30723CCB2AEF8E7
:103100000030AEF80040AEF8003040F22803AEF8D0
:103110000040C2F200031B882C243480164642462D
:10312000AEF80030B0E702B0BDE8F08FF0B581B086
:103130001D46069B0C4606465BB300204FF0C0417F
:103140002A23C6F202000B80330A0380F3B2038005
:10315000B318013B1F0ADBB2078003802B230B80CF
:10316000230A0380E3B203806319013B1F0ADBB229
:103170000780038040F22803C2F200036A431B88E1
:103180002C270F801AB100BF013A0380FCD101B097
:10319000F0BDB018013887B2304621463A46234682
:1031A000FFF740FF6019013885B2304629463A469C
:1031B0002B46FFF737FF3046214632462B46FFF7B6
:1031C00031FF384621463A462B4601B0BDE8F04073
:1031D000FFF728BF2DE9F04F8FB00E9111B20029F3
:1031E00000930D9000F1A88340F2000C032040F200
:1031F0001A0440F21C081746C6F2020CA0EB420566
:103200004FF0000BC2F20004C2F200084FF0C04EB3
:103210001AE000BF039802990130019D421A0A2367
:1032200003EB8202EB431BB22EB201EBD3330FFA56
:1032300080FB1FB2002E4FF0060148BF01EB800259
:10324000BB45154400F378830098002801A880E866
:10325000A00800F0AF8139B20FFA8BF088420A91D2
:10326000D8DC0D99039A501887B2C0B20890881A1A
:1032700086B2310A07910E99C0B23B0A06905018E7
:10328000099383B2C0B20490881A81B20C931B0ACE
:103290004FEA11295FFA80FB104605930B9104E079
:1032A00001300A9900B28842B4DC22880E99BA42F1
:1032B00000EB010529D9B8F80020ABB29A4224D915
:1032C0002A21AEF800100999EBB2ACF80010089A68
:1032D000ACF80020ACF800102B21ACF80020AEF8C0
:1032E0000010C5F3072240F22801ACF80020ACF82A
:1032F0000030ACF80020ACF80030C2F200010A88BF
:103300002C21AEF80010ACF800202288B246B24260
:1033100029D9B8F80020ABB29A4224D92A21AEF8B4
:1033200000100799EBB2ACF80010069AACF8002038
:10333000ACF800102B21ACF80020AEF80010C5F35B
:10334000072240F22801ACF80020ACF80030ACF8BD
:103350000020ACF80030C2F200010A882C21AEF83F
:103360000010ACF800200D9922880D1A1FFA85F87C
:1033700042452CD940F21C01C2F200010A880C9986
:103380008A4224D92A21AEF80010C5F30722EBB2F5
:103390002B21ACF80020ACF80030ACF80020ACF8E1
:1033A0000030AEF800100599ACF80010049AACF8A3
:1033B0000020ACF8001040F22801ACF80020C2F266
:1033C00000010A882C21AEF80010ACF8002040F271
:1033D0001A01C2F200010A88424540F21C08C2F2FA
:1033E000000827D9B8F800200B998A4222D92A214F
:1033F000AEF80010C5F30722EBB22B21ACF8002089
:10340000ACF80030ACF80020ACF80030AEF800109A
:1034100040F22801ACF80090ACF800B0ACF8009095
:10342000ACF800B0C2F200010A882C21AEF80010FE
:10343000ACF8002040F21A04C2F2000422880E996F
:1034400056465245A1EB000529D9B8F80020ABB289
:103450009A4224D92A21AEF800100799EBB2ACF8B1
:103460000010069AACF80020ACF800102B21ACF844
:103470000020AEF80010C5F3072240F22801ACF896
:103480000020ACF80030ACF80020ACF80030C2F2FC
:1034900000010A882C21AEF80010ACF80020228828
:1034A000BA4229D9B8F80020ABB29A4224D92A21CD
:1034B000AEF800100999EBB2ACF80010089AACF81D
:1034C0000020ACF800102B21ACF80020AEF8001062
:1034D000C5F3072240F22801ACF80020ACF8003018
:1034E000ACF80020ACF80030C2F200010A882C21B0
:1034F000AEF80010ACF800200D9923884518AAB248
:10350000934227D9B8F800300B998B4222D92A214F
:10351000AEF80010C5F30723E9B2ACF80030ACF800
:103520000010ACF80030ACF800102B21AEF8001001
:1035300040F22801ACF80090ACF800B0ACF8009074
:10354000ACF800B0C2F2000109882C23AEF80030BC
:10355000ACF80010218891427FF6A2AEB8F80010B6
:103560000C9A91427FF69CAE2A21AEF80010C5F36A
:103570000721EAB2ACF80010ACF80020ACF800105B
:103580002B21ACF80020AEF800100599ACF8001023
:10359000049AACF80020ACF8001040F22801ACF816
:1035A0000020C2F2000109882C22AEF80020ACF8FD
:1035B000001075E60D9821880BEB00060E981FFA97
:1035C00086F8414507EB00012DD940F21C00C2F2FC
:1035D000000002888BB29A4225D92A20AEF800005A
:1035E000C6F30722F3B22B20ACF80020ACF8003071
:1035F000ACF80020ACF80030AEF80000C1F30722B0
:10360000CBB240F22800ACF80020ACF80030ACF8A7
:103610000020ACF80030C2F2000002882C20AEF886
:103620000000ACF800200D98A0EB0B0940F21A0046
:10363000C2F2000002881FFA89FA52452ED940F2E0
:103640001C00C2F2000002888BB29A4226D92A20BE
:10365000AEF80000C9F307225FFA89F32B20ACF81B
:103660000020ACF80030ACF80020ACF80030AEF828
:103670000000C1F30722C9B240F22800ACF80020D4
:10368000ACF80010ACF80020ACF80010C2F200005A
:1036900001882C20AEF80000ACF800100D98C21B79
:1036A00040F21A00C2F2000001880E9893B29942CB
:1036B0000BEB00042DD940F21C00C2F2000005887B
:1036C000A0B2854225D92A20AEF80000C2F3072017
:1036D000D5B2ACF80000ACF80050ACF800002B20DC
:1036E000ACF80050AEF80000C4F30720E5B2ACF827
:1036F0000000ACF80050ACF8000040F22800ACF834
:103700000050C2F2000000882C21AEF80010ACF886
:10371000000040F21A00C2F20000008898420E98A1
:10372000A0EB0B032DD940F21C00C2F20000008870
:103730009DB2A84225D92A20AEF80000C2F3072086
:10374000D2B2ACF80000ACF80020ACF800002B209E
:10375000ACF80020AEF80000C3F30720DAB2ACF8F2
:103760000000ACF80020ACF8000040F22800ACF8F3
:103770000020C2F2000000882C21AEF80010ACF846
:10378000000040F21A00C2F20000008850450E9876
:10379000A0EB07052ED940F21C00C2F20000008801
:1037A000AAB2904226D92A20AEF80000C9F3072019
:1037B0005FFA89F2ACF80000ACF80020ACF8000029
:1037C0002B20ACF80020AEF80000C5F30720EAB2C9
:1037D000ACF80000ACF80020ACF8000040F2280083
:1037E000ACF80020C2F2000000882C21AEF80010D6
:1037F000ACF8000040F21A00C2F200000088A146B6
:1038000040452DD940F21C00C2F200000088AAB247
:10381000904225D92A20AEF80000C6F30720F2B264
:10382000ACF80000ACF80020ACF800002B20ACF89D
:103830000020AEF80000C5F30720EAB2ACF80000A3
:10384000ACF80020ACF8000040F22800ACF80020F2
:10385000C2F2000000882C21AEF80010ACF8000085
:103860000D9840F21A04C2F200043844268882B24D
:1038700040F21C089642C2F200082AD9B8F800109B
:103880009DB2A94225D92A21AEF80010C0F3072124
:10389000C5B2ACF80010ACF80050ACF800102B2109
:1038A000ACF80050AEF80010C3F30721DBB2ACF85F
:1038B0000010ACF80030ACF8001040F22801ACF871
:1038C0000030C2F200010B882C21AEF80010ACF8D9
:1038D0000030238893427FF69DACB8F800201FFA91
:1038E00089F39A427FF696AC2A21C0F30722C0B230
:1038F000AEF80010ACF80020ACF80000ACF80020E6
:10390000ACF800002B20AEF80000C9F307205FFAE6
:1039100089F1ACF80000ACF80010ACF8000040F2FF
:103920002800ACF80010C2F2000000882C21AEF88C
:103930000010ACF800006DE40FB0BDE8F08F00BFE0
:10394000F0B540F21403C2F200031B6800259C8806
:10395000DF88D3F800E007FB04F6C6F3C70C4FF08E
:10396000C0432A26C6F202051E80060A2E80C6B271
:1039700020440138040AC0B22E802C8028802B20DD
:103980001880080A2880C8B22880C8190138010A9E
:10399000C0B2298028802C20BCF1000F188008BFFD
:1039A000F0BD4FF6E070104480B20CFB00E040F236
:1039B000000240F228060021C2F20002C2F2000614
:1039C000002400BF475C3346A7403F0658BF13465C
:1039D0001B880134082C2B80F4D101316145EFD1D3
:1039E000F0BD00BF2DE9F04F81B091F800E0BEF1CD
:1039F000000F00F0808040F21402C2F20002D2F800
:103A000000C00023DCF8002040F2000440F2280847
:103A1000C6F202034FF0000BC2F20004C2F200082B
:103A2000009207E011F801EFBCF80420BEF1000F8E
:103A3000934460D040F21A05BCF804A0C2F200051D
:103A40001FFA8BF22E885244B24204D9BCF80620E9
:103A50004FF0000B104440F21C05BCF80660C2F2A7
:103A6000000582B22F883244BA4206FB0AF2C2F342
:103A7000C7094FF0C0454FF02A0284BF4FF0000B3A
:103A800000202A801FFA8BF2170A52441F805FFA27
:103A90008BF7013A1F80170AD2B21F801A802B229F
:103AA0002A8082B2170A3244013A1F80C7B2160A2E
:103AB000D2B21F801E801A80B9F1000F4FF02C0285
:103AC0002A80AFD04FF6E0727244009F92B209FB99
:103AD00002760027002200BFF55D95402D06454681
:103AE00058BF25462D880132082A1D80F4D10137A0
:103AF0004F45EFD196E701B0BDE8F08F2DE9F04FCB
:103B000081B092F80090B9F1000F00F0858040F28A
:103B10001403C2F20003D3F800C040F2000EDCF838
:103B2000003040F2000640F22808C6F2020EC2F24F
:103B30000006C2F20008009308E000BF12F8019FDF
:103B4000BCF80430B9F1000F184465D040F21A03F4
:103B5000BCF804B0C2F2000384B21D885C44AC42DD
:103B600003D9BCF806000144002040F21C03BCF855
:103B70000650C2F200038CB21F882C44BC4205FBE5
:103B80000BF4C4F3C70A4FF0C0434FF02A0484BFBC
:103B9000002000211C8084B2270A5C44AEF800702B
:103BA000C7B2013CAEF80070270AE4B2AEF800706C
:103BB000AEF800402B241C808CB2270A2C44013C18
:103BC000AEF80070CFB2250AE4B2AEF80070AEF8DD
:103BD0000050AEF80040BAF1000F4FF02C041C80EA
:103BE000ACD04FF6E07309EB0304009BA4B20AFBD0
:103BF00004340025002700BF635DBB401B0643461D
:103C000058BF33461B880137082FAEF80030F3D178
:103C100001355545EED191E701B0BDE8F08F00BF09
:103C20002DE9F04F81B092F80090B9F1000F00F04B
:103C3000858040F21403C2F20003D3F800C040F2C2
:103C4000000EDCF8003040F2000640F22808C6F210
:103C5000020EC2F20006C2F20008009308E000BFA4
:103C600012F8019FBCF80630B9F1000F194465D075
:103C700040F21C03BCF806B0C2F200038CB21D88EF
:103C80005C44AC4203D9BCF804100844002140F263
:103C90001A03BCF80450C2F2000384B21F882C44FB
:103CA000BC4205FB0BF4C4F3C70A4FF0C0434FF00E
:103CB0002A0484BF002100201C8084B2270A2C44DF
:103CC000013CAEF80070C7B2250AE4B2AEF800704D
:103CD000AEF80050AEF800402B241C808CB2250AB0
:103CE0005C44AEF80050CDB2013CAEF80050250A5D
:103CF000E4B2AEF80050AEF80040BAF1000F4FF059
:103D00002C041C80ACD04FF6E07309EB0304009B3D
:103D1000A4B20AFB04340025002700BF635DBB404A
:103D20001B06434658BF33461B880137082FAEF8A1
:103D30000030F3D101355545EED191E701B0BDE832
:103D4000F08F00BF40F21401C2F20001086070471A
:103D500040F21400C2F200000068704740F22802EE
:103D6000C2F20002108040F20000C2F200000180A6
:103D7000704700BF40F22802C2F20002128802809F
:103D800040F20000C2F2000000880880704700BFC7
:103D900040F22801C2F200010880704740F20001A1
:103DA000C2F200010880704710B540F2140340F2DF
:103DB0001A02C2F20003C2F200021B680021B2F82C
:103DC00000E04FF0C04C2A22C6F20201DB88ACF8BA
:103DD000002000220A800A80AEF10102140AD2B249
:103DE0000C800A802B22ACF80020020A0A80C2B2A2
:103DF000184401380A80020A0A80C0B240F2000268
:103E0000088003FB0EF0C2F2000212882C23002867
:103E1000ACF8003008BF10BD01380A80FCD110BDDD
:103E2000704700BF82B0002101910199814210D2F8
:103E30000B2105E0019A01320192019A824208D2D7
:103E4000009100BF009A002AF4D0009A013A009233
:103E5000F8E702B0704700BF83B000210091009ADC
:103E600082421CD20B2205E0009B01330093009B91
:103E7000834214D20291029BDB087C2B07D9F3E723
:103E8000029B01330293029BB3F57A7FECD201923D
:103E9000019B002BF4D0019B013B0193F8E703B099
:103EA0007047000010B5FEF763FC40F21800C2F244
:103EB00000000078FEF778FF40F2FF70FFF76EFF1A
:103EC00040F21A00C2F20000028840F21C00C2F266
:103ED0000000038800200021FFF712F800204FF6B1
:103EE000E071FFF73BFF40F20C04C2F200042046F1
:103EF000FFF728FFFFF72CFF1DA10020FFF772FD41
:103F00004FF4FA70FFF7A8FFFFF722FFC0881EA149
:103F1000FFF768FD4FF6FF704FF2DE71FFF71EFFEF
:103F200040F20400C2F20000FFF70CFF4FF4FA70F9
:103F3000FFF792FFFFF70CFFC08817A1FFF752FDB4
:103F40002046FFF7FFFE4FF478404FF4FC61FFF787
:103F500005FFFFF7FDFEC08812A1800080B2FFF7C9
:103F600041FD4FF4FA70BDE81040FFF775BF00BF88
:103F700068656C6C6F216D7920646565722066726E
:103F800069656E6421000000484552452049532070
:103F90002E2E2E2E2E2E2E002020205A5A59202032
:103FA0002000000020202066726F6D20554553547C
:103FB000432020200000000080B540F21A00C2F229
:103FC0000000028840F21C00C2F2000003880020BA
:103FD0000021FEF795FFFFF7BBFEC0880CA100EBA8
:103FE000800080B2FFF7FEFC4FF4FA70FFF734FF59
:103FF000FFF7AEFEC0880DA100EB4000400080B28C
:10400000FFF7F0FC4FF4FA70BDE88040FFF724BFE3
:104010006C657427732073746172742074686520F2
:1040200070726F6772616D21000000007468652016
:10403000726573756C74206F66207265636F676E4E
:10404000697A6174696F6E3A00000000F0B581B062
:1040500040F21A0740F21C06C2F20007C2F2000644
:1040600038B1022829D003284BD14FF4967435A5D6
:1040700026E04FF6FF700021FFF770FE3A88338884
:1040800000200021FEF73CFF40F20400C2F20000D5
:10409000FFF758FE4FF49670FFF7DEFEFFF758FE6D
:1040A000C08825A1800080B2FFF79CFC4FF4967079
:1040B00001B0BDE8F040FFF7CFBE4FF4FA741BA586
:1040C0004FF478404FF4FC61FFF748FE40F20400E3
:1040D000C2F20000FFF736FE3A8833880020002144
:1040E000FEF70EFF4FF49670FFF7B6FEFFF730FEB7
:1040F000C0882946800080B2FFF774FC2046FFF795
:10410000ABFE40F20C00C2F20000FFF71BFE4FF4C2
:1041100078404FF4FC61FFF721FE3A883388002095
:10412000002101B0BDE8F040FEF7EABE202050417A
:1041300053532120202000002020425945212020D7
:1041400020000000202044454E49454421202020E5
:1041500000000000D2B201E000F8012B491EFBD2A2
:1041600070470022F6E710B513460A460446194682
:10417000FFF7F0FF204610BD064C074D06E0E06853
:1041800040F0010394E8070098471034AC42F6D39E
:10419000FBF7D2FF8C6B0008AC6B000802E008C88C
:1041A000121F08C1002AFAD170477047002001E0B1
:1041B00001C1121F002AFBD170470000040000005B
:1041C0000800000010000000200000004000000077
:1041D000800000000001000002040608000000004A
:1041E00000000000010203040607080900000000A7
:1041F000010203040102030406070809000000008D
:1042000000000000000000000000000000000000AE
:10421000000000000000000000000000000000009E
:10422000000000000000000000000000000000008E
:10423000000000000000000000000000000000007E
:10424000000000000000000000000000000000006E
:10425000000000000000000000000000000000005E
:104260000000000000000000000000000000003C12
:1042700000003C00003C00003C00003C00003C0012
:10428000003C00003C00003C00003C00003C000002
:104290003C00003C00003C00000000000000003C2E
:1042A00000007E00003C0000000000000000000054
:1042B00000000000000000000000000000000000FE
:1042C000000000000000000000000000000003C328
:1042D000E003C3E003C3C003C3C003C3C003C3C040
:1042E00003C1C0000000000000000000000000004A
:1042F00000000000000000000000000000000000BE
:1043000000000000000000000000000000000000AD
:10431000000000000000000000000000000000009D
:10432000000000000000000000000000000000008D
:104330000000000001E0E001C0E001C0E001C0E0D9
:104340003FFFFE3FFFFE03C1C00381C00381C003E6
:1043500081C07FFFFC7FFFFC07838007038007038A
:1043600080070380070780000000000000000000B5
:10437000000000000000000000000000000000003D
:104380000000000000000000000000000700000F17
:1043900000000E0001FFF007FFF01F0E001E1E00C0
:1043A0001E1C001E1C000FDC0007FC0000FF80002C
:1043B0003FF00038F800387800783C0070783071B1
:1043C000F83FFFE01FFF0000E00000E00000E00019
:1043D00000000000000000000000000000000000DD
:1043E00000000000000000000000000000000F803E
:1043F0000F3FE01E78703C7070707070E07071C09C
:104400003FE3801FC700000E00001C000078000082
:10441000F0F001E7FC03CF0E078E0E0F0E0E1E0EFE
:104420000E3C07BC7003F800000000000000000014
:10443000000000000000000000000000000000007C
:10444000000000000000000000000000000000006C
:104450000001FF0007FF800F03C00F03C00F03C060
:104460000F0780079F0003FE0003F0000FF83C3E9B
:104470007C3C3C1F3C780FF87807F87C01F03E0349
:10448000F81FFFFC07FE1F000000000000000000F6
:10449000000000000000000000000000000000001C
:1044A0000000000000000000000000000000003ECE
:1044B00000003C00003C00003C00003C00003C00D0
:1044C000003C0000000000000000000000000000B0
:1044D00000000000000000000000000000000000DC
:1044E00000000000000000000000000000000000CC
:1044F00000000000000000000000000000000000BC
:10450000000000000000000000000000008000012A
:10451000C0000780000F00001E00003C0000780073
:1045200000F00000E00001E00001E00001C0000335
:10453000C00003C00001C00001E00001E00000F085
:104540000000F000007800003C00001E00000F009A
:104550000007C00001C000000000000000000000D3
:10456000000000000000000000000000000003C088
:104570000001E00000F000007C00003E00001E0092
:10458000000F000007800007800003800003C000C8
:1045900003C00003C00003C00003800007800007C1
:1045A00080000F00001E00003C0000780000F000BA
:1045B00001E0000380000000000000000000000097
:1045C0000000000000000000000000000000001CCF
:1045D00000001C000018000F18F007DBE0007F004F
:1045E00000FF0007DBE00E1870001800001C000040
:1045F0001C0000000000000000000000000000009F
:1046000000000000000000000000000000000000AA
:10461000000000000000000000000000000000009A
:10462000000000000000000000000000000000008A
:1046300000000000000000000000000000003C003E
:10464000003C00003C00003C00003C00003C003FFF
:10465000FFFC3FFFFC003C00003C00003C00003C35
:1046600000003C000000000000000000000000000E
:10467000000000000000000000000000000000003A
:10468000000000000000000000000000000000002A
:10469000000000000000000000000000000000001A
:1046A000000000000000000000000000000000000A
:1046B0000000000000000000000000007C00007E00
:1046C00000007E00003E00001E00003C0000F800DC
:1046D00007E00004000000000000000000000000EF
:1046E00000000000000000000000000000000000CA
:1046F00000000000000000000000000000000000BA
:1047000000000000000000000000000000000003A6
:10471000FFE003FFE00000000000000000000000D8
:104720000000000000000000000000000000000089
:104730000000000000000000000000000000000079
:104740000000000000000000000000000000000069
:104750000000000000000000000000000000000059
:104760000000000000000000000000000000000049
:104770000000000000000000000000007C0000FEBF
:104780000000FE00007E00000000000000000000AD
:104790000000000000000000000000000000000019
:1047A0000000000000000000000000000000000009
:1047B000780000F00000E00001E00003C00003808A
:1047C000000780000F00000E00001E00003C0000EB
:1047D000380000700000F00000E00001C00003C0DD
:1047E000000780000700000F00001E00001C0000F2
:1047F00000000000000000000000000000000000B9
:1048000000000000000000000000000000000000A8
:104810000000000001FFC007FFE00F00F01E00785D
:104820001E003C3C00FC3C07FC3C1FBC3C7C1C3D8F
:10483000F03C3FC03C3F003C1E00381E00780F801B
:10484000F007FFE001FF8000000000000000000012
:104850000000000000000000000000000000000058
:104860000000000000000000000000000000000048
:1048700000000000007E0003FE001FDE000E1E0090
:10488000001E00001E00001E00001E00001E000092
:104890001E00001E00001E00001E00001E00001E64
:1048A000000FFFF80FFFF8000000000000000000FC
:1048B00000000000000000000000000000000000F8
:1048C00000000000000000000000000000000000E8
:1048D0000000000003FF800FFFE00E01F00000F079
:1048E0000000F00000F00000F00001E00003C00054
:1048F0000F80003E00007C0001F00003C0000F802C
:10490000001FFFFC1FFFFC00000000000000000073
:104910000000000000000000000000000000000097
:104920000000000000000000000000000000000087
:10493000000000000FFF800FFFE00001E00000F02A
:104940000000F00001E00003C001FF0001FFC00013
:1049500003F0000078000078000078000078000183
:10496000F00FFFC00FFF000000000000000000007B
:104970000000000000000000000000000000000037
:104980000000000000000000000000000000000027
:1049900000000000000FC0001FC0003FC0007BC02F
:1049A00000F3C001E3C003C3C00783C00F03C01CF2
:1049B00003C03803C07FFFFE7FFFFE0003C000037B
:1049C000C00003C00003C0000000000000000000A1
:1049D00000000000000000000000000000000000D7
:1049E00000000000000000000000000000000000C7
:1049F000000000000FFFE00FFFE00F00000F0000BD
:104A00000F00000F00000F00000FFF800FFFE000FD
:104A100000F00000780000780000780000F000034B
:104A2000E00FFFC00FFE00000000000000000000CB
:104A30000000000000000000000000000000000076
:104A40000000000000000000000000000000000066
:104A500000000000003FF001FFF003E000078000CD
:104A60000F00001E00001E1F001FFFE01FC1F81EE8
:104A700000781E003C1E003C1E003C0F00780F809A
:104A8000F807FFE001FF80000000000000000000C8
:104A90000000000000000000000000000000000016
:104AA0000000000000000000000000000000000006
:104AB000000000001FFFFC1FFFFC0000780000F05A
:104AC0000000E00001E00003C0000780000F0000CC
:104AD0000F00001E00003C0000780000F00001F014
:104AE0000001E00003C00000000000000000000022
:104AF00000000000000000000000000000000000B6
:104B000000000000000000000000000000000000A5
:104B10000000000003FFE00FE3F00F00781E0078B4
:104B20001E00780F00F007E3E001FF8001FF80071F
:104B3000E7E00F00F81E00781E003C1E007C1F00FE
:104B4000F80FFFF003FFC0000000000000000000AD
:104B50000000000000000000000000000000000055
:104B60000000000000000000000000000000000045
:104B70000000000003FF800FC7E01E00F01E007859
:104B80003C00783C00783C00381E00780FEFF807B6
:104B9000FFB80000780000780000F00001E0000F8E
:104BA000C00FFF000FF00000000000000000000038
:104BB00000000000000000000000000000000000F5
:104BC00000000000000000000000000000000000E5
:104BD00000000000000000000000000000000000D5
:104BE000007E00007E00007E000018000000000033
:104BF0000000000000000000000000003C00007EFB
:104C000000007E00003E00000000000000000000E8
:104C10000000000000000000000000000000000094
:104C20000000000000000000000000000000000084
:104C30000000000000000000000000000000000074
:104C4000007E00007E00007E0000180000000000D2
:104C50000000000000000000000000003E00007E98
:104C600000007F00001F00001E00001E0000FC006E
:104C700007F0000400000000000000000000000039
:104C80000000000000000000000000000000000024
:104C9000000000000000000000000000400001E0F3
:104CA0000007C0001F00007E0001F80003E0000FB5
:104CB00080000F800003E00000F800003E00000FBD
:104CC000800003E00000E0000000000000000000A1
:104CD00000000000000000000000000000000000D4
:104CE00000000000000000000000000000000000C4
:104CF00000000000000000000000000000000000B4
:104D00000000000000000000001FFFF8000000008D
:104D100000000000001FFFF81FFFF8000000000067
:104D20000000000000000000000000000000000083
:104D30000000000000000000000000000000000073
:104D40000000000000000000000000000000000063
:104D500000000000000000000000000000078000CC
:104D600003E00000F800003E00000F800003E000B8
:104D700000F80001F00007C0001F00007C0001F0F7
:104D80000007C00003000000000000000000000059
:104D90000000000000000000000000000000000013
:104DA000000000000000000000000000000001C042
:104DB0000001FE00007F800007C00001E00000F05D
:104DC0000000F00001F00003E0007FC0007E000062
:104DD000700000700000700000000000000000F88B
:104DE0000000F80000F800000000000000000000D3
:104DF00000000000000000000000000000000000B3
:104E00000000000000000000000000000000001F83
:104E10008000FFF003C07807801C0E000E1C000EFF
:104E20003C000F383FC778FFC770E3C771C3C7F3B3
:104E3000C387E3C387E3878EE3878EE3CF8EE3FFE9
:104E4000FC71F9F07000007000003800003C0000B8
:104E50000F01C007FFC000000000000000000000BC
:104E60000000000000000000000000000000000042
:104E700000000000007E00007F0000FF0000E780CF
:104E800001E78003C3C003C3C00781E00781E00FCF
:104E900000F00F00F81FFFF81FFFFC3C003C3C0037
:104EA0001E78001EF0000F0000000000000000004F
:104EB00000000000000000000000000000000000F2
:104EC00000000000000000000000000000000000E2
:104ED000000000001FFFC01FFFF01E00F01E007842
:104EE0001E00781E00F01E01F01FFFC01FFFE01E15
:104EF00001F81E00781E003C1E003C1E00781E00BB
:104F0000F81FFFE01FFF000000000000000000008D
:104F10000000000000000000000000000000000091
:104F20000000000000000000000000000000000081
:104F30000000000000FFF803FFF807C0000F0000AA
:104F40001E00001E00003C00003C00003C00003C35
:104F500000003C00003E00001E00000F00000FC0DB
:104F60000803FFF800FFF800000000000000000048
:104F70000000000000000000000000000000000031
:104F80000000000000000000000000000000000021
:104F9000000000003FFF003FFFE03C01F03C0078D4
:104FA0003C003C3C003C3C003C3C001E3C001E3CA9
:104FB000001E3C003C3C003C3C00783C00F83C07B8
:104FC000E03FFFC03FFC00000000000000000000C8
:104FD00000000000000000000000000000000000D1
:104FE00000000000000000000000000000000000C1
:104FF000000000000FFFF00FFFF00F00000F000097
:105000000F00000F00000F00000FFFF00FFFF00F68
:1050100000000F00000F00000F00000F00000F0045
:10502000000FFFF00FFFF000000000000000000084
:105030000000000000000000000000000000000070
:105040000000000000000000000000000000000060
:10505000000000000FFFF00FFFF00F00000F000036
:105060000F00000F00000F00000FFFF00FFFF00F08
:1050700000000F00000F00000F00000F00000F00E5
:10508000000F00000F000000000000000000000002
:105090000000000000000000000000000000000010
:1050A0000000000000000000000000000000000000
:1050B0000000000000FFFC03FFFC0FC0041F000005
:1050C0001E00003C00003C0000780FFC780FFC78CC
:1050D000003C3C003C3C003C3E003C1F003C0FC000
:1050E0003C03FFFC00FFF80000000000000000008F
:1050F00000000000000000000000000000000000B0
:10510000000000000000000000000000000000009F
:10511000000000003C003C3C003C3C003C3C003CAF
:105120003C003C3C003C3C003C3FFFFC3FFFFC3C67
:10513000003C3C003C3C003C3C003C3C003C3C0017
:105140003C3C003C3C003C00000000000000000033
:10515000000000000000000000000000000000004F
:10516000000000000000000000000000000000003F
:10517000000000000FFFF80FFFF8003C00003C00AB
:10518000003C00003C00003C00003C00003C0000F3
:105190003C00003C00003C00003C00003C00003CA7
:1051A000000FFFF80FFFF8000000000000000000F3
:1051B00000000000000000000000000000000000EF
:1051C00000000000000000000000000000000000DF
:1051D000000000000FFFE00FFFE00001E00001E031
:1051E0000001E00001E00001E00001E00001E0005A
:1051F00001E00001E00001E00001E00003C00C0755
:10520000C00FFF8007FE000000000000000000004B
:10521000000000000000000000000000000000008E
:10522000000000000000000000000000000000007E
:10523000000000001E00781E01F01E03C01E078043
:105240001E1F001E3C001E78001EF0001FF0001EF6
:10525000F8001E3C001E1E001E0F801E07C01E010F
:10526000E01E00F81E007C000000000000000000AE
:10527000000000000000000000000000000000002E
:10528000000000000000000000000000000000001E
:1052900000000000078000078000078000078000F2
:1052A0000780000780000780000780000780000754
:1052B00080000780000780000780000780000780CB
:1052C0000007FFF807FFF8000000000000000000E2
:1052D00000000000000000000000000000000000CE
:1052E00000000000000000000000000000000000BE
:1052F000000000003E007C3F00FC3F81DC3B81DC85
:105300003BC39C39C39C38E71C38EF1C387E1C38E3
:105310007C1E383C1E78001E78001E78001E780027
:105320001E78001E78001E00000000000000000033
:10533000000000000000000000000000000000006D
:10534000000000000000000000000000000000005D
:10535000000000001F003C1F803C1FC03C1DC03CE3
:105360001DE03C1CF03C1C783C1C783C1C3C3C1C6C
:105370001E3C1C0F3C1C0F3C1C07BC1C03FC1C01EE
:10538000FC1C00FC1C00FC000000000000000000F1
:10539000000000000000000000000000000000000D
:1053A00000000000000000000000000000000000FD
:1053B0000000000001FFC007FFF00F00F81E007C96
:1053C0003C003C3C001E78001E78001E78001E78D1
:1053D000001E78001E3C003C3C003C1E00781F0074
:1053E000F007FFE001FF8000000000000000000067
:1053F00000000000000000000000000000000000AD
:10540000000000000000000000000000000000009C
:10541000000000001FFF801FFFF01E00F81E007C30
:105420001E003C1E003C1E003C1E00781E03F01FA8
:10543000FFC01FFE001E00001E00001E00001E0018
:10544000001E00001E000000000000000000000020
:10545000000000000000000000000000000000004C
:10546000000000000000000000000000000000003C
:105470000000000001FFC007FFF00F00F81E007CD5
:105480003C003C3C001E78001E78001E78001E7810
:10549000001E78001E3C003C3C003C1E00781F8033
:1054A000F007FFE001FF80003C00003C00001F0609
:1054B000000FFF0001F800000000000000000000E5
:1054C00000000000000000000000000000000000DC
:1054D000000000000FFF800FFFE00E01F00E00F053
:1054E0000E00F00E00F00E01F00FFFC00FFF000ED7
:1054F0001F000E07800E03C00E01E00E00F00E002C
:10550000F80E00780E003C000000000000000000D3
:10551000000000000000000000000000000000008B
:10552000000000000000000000000000000000007B
:105530000000000003FFF00FFFF01F00001E00003E
:105540001E00001F00000FC00007FC0000FF8000CD
:105550000FF00001F80000780000780000782000CB
:10556000F83FFFE03FFF8000000000000000000067
:10557000000000000000000000000000000000002B
:10558000000000000000000000000000000000001B
:10559000000000003FFFFC3FFFFC003C00003C001F
:1055A000003C00003C00003C00003C00003C0000CF
:1055B0003C00003C00003C00003C00003C00003C83
:1055C00000003C00003C0000000000000000000063
:1055D00000000000000000000000000000000000CB
:1055E00000000000000000000000000000000000BB
:1055F000000000003C003C3C003C3C003C3C003CCB
:105600003C003C3C003C3C003C3C003C3C003C3C06
:10561000003C3C003C3C003C3C003C1E00781F0031
:10562000F80FFFE003FF8000000000000000000012
:10563000000000000000000000000000000000006A
:10564000000000000000000000000000000000005A
:1056500000000000F8000F78001E3C001E3C003CDB
:105660001E00381E00780F00700F00F00781E00761
:1056700081E003C3C003E3C001E78000F78000FFBF
:1056800000007E00007E000000000000000000001E
:10569000000000000000000000000000000000000A
:1056A00000000000000000000000000000000000FA
:1056B0000000000078000E78000E78000E78001EC2
:1056C00038001E38001E383C1C383C1C387E1C3804
:1056D0007F1C3CE71C3CE79C3DC39C1DC3DC1F8139
:1056E000DC1F80F81F00F800000000000000000030
:1056F00000000000000000000000000000000000AA
:105700000000000000000000000000000000000099
:10571000000000003C003C1E00780F00F00781E014
:1057200003C3C001E78000FF00007E00007E000090
:10573000FF0001FF8003E7C007C3E00F81F01F00F7
:10574000F83E007C7C003E000000000000000000ED
:105750000000000000000000000000000000000049
:105760000000000000000000000000000000000039
:105770000000000078001F3C003E1E007C1F0078E7
:105780000F80F007C1E003E3C001E78000FF0000E5
:105790007E00003C00003C00003C00003C00003C5F
:1057A00000003C00003C0000000000000000000081
:1057B00000000000000000000000000000000000E9
:1057C00000000000000000000000000000000000D9
:1057D000000000001FFFFC1FFFFC0000F80001E0BC
:1057E0000003C0000780000F00001E00003C000006
:1057F000780000F00003E00007C0000F80001F00E9
:10580000003FFFFC3FFFFC00000000000000000024
:105810000000000000000000000000000000000088
:10582000000000000000000000000000000001FF78
:10583000C001FFC001E00001E00001E00001E00064
:1058400001E00001E00001E00001E00001E00001F2
:10585000E00001E00001E00001E00001E00001E003
:105860000001E00001E00001E00001E00001E000D3
:1058700001E00001FFC00000000000000000000087
:1058800000000000000000000000000000000E000A
:10589000000F000007000003800003C00001E000CB
:1058A00000E00000F000007800003800003C00003C
:1058B0001E00000E00000F000007800003800001A2
:1058C000C00001E00000E000007000007800003C33
:1058D00000000000000000000000000000000000C8
:1058E000000000000000000000000000000003FFB6
:1058F0008003FF800007800007800007800007808A
:1059000000078000078000078000078000078000F4
:1059100007800007800007800007800007800007DD
:105920008000078000078000078000078000078054
:1059300000078003FF80000000000000000000005E
:105940000000000000000000000000000000000057
:1059500000000000003C00007E0000E70001C38062
:105960000381C00700E00E00F01E00780000000078
:105970000000000000000000000000000000000027
:105980000000000000000000000000000000000017
:105990000000000000000000000000000000000007
:1059A00000000000000000000000000000000000F7
:1059B00000000000000000000000000000000000E7
:1059C00000000000000000000000000000000000D7
:1059D00000000000000000000000000000000000C7
:1059E00000000000000000000000000000000000B7
:1059F000FFFFFFFFFFFF00000000000000000000AD
:105A000000000000000000000000000000000F8007
:105A10000003E00000F800003C000000000000006F
:105A20000000000000000000000000000000000076
:105A30000000000000000000000000000000000066
:105A40000000000000000000000000000000000056
:105A50000000000000000000000000000000000046
:105A60000000000000000000000000000000000036
:105A70000000000000000000000000000000000026
:105A800007FFC007E7F00000F00000780000780092
:105A9000FFF807FFF80F00781E00781E00781E033D
:105AA000F80FFFF807FC780000000000000000007D
:105AB00000000000000000000000000000000000E6
:105AC00000000000000000000000000000001E00B8
:105AD000001E00001E00001E00001E00001E000030
